:1000000039EF00F0F76A140FF66E000EF7220900C0
:10001000F5501200047C057CEA6A120EE96EEF507E
:100020000EE0140E016E006A002EFED7012EFBD7E3
:10003000BF0E006E002EFED700D0EF2EF2D785EF58
:1000400000F01350070B006E1330016E01320132C5
:100050001F0E011601501424E96E000E1520EA6EE1
:10006000EFCF01F0002A01D00132002EFDD7C0EF02
:1000700000F0F86AD09EEA6AE96A700ED36E9B8C33
:100080009B9EC150F00BC16E000E0F01386F3C6F8C
:10009000396F3A6F3B6F776A786A796A0580066ACA
:1000A000096A0A6A0B6A0C6A0D6A0E6A0F6A106A9C
:1000B000BF0E926E000E936E946EC050C00B070977
:1000C000C06EC08EC280C150F00BC16E0F0E386F73
:1000D000000E3C6F396F3A6F3B6FC150F00BC16E31
:1000E000000E386F3C6F396F3A6F3B6F830ED56EE1
:1000F000370ECD6ECC6AF28A9D80C00EF212080EC9
:10010000116EFA0E126E000187D7112E01D002D0A7
:100110000F01F7D7076A07500308D8A080D007342B
:10012000006E0036FC0E0016C250830B0010C26E2B
:10013000D8900734036A090FE96E000E0320EA6EB7
:10014000C282C2B2FED7C3CFEFFFC4CFECFF80AEF6
:100150005ED005A05CD0086A066A085001081FE35B
:10016000D8900834036A4EDF0900F5CF03F0116E12
:1001700003C012F0136E0F0E156E800E146E61D751
:10018000000E01B0010E006E0850016E04E0D89020
:100190000036012EFCD700500612082ADED7D89070
:1001A0000634036A090FE96E000E0320EA6EECCFF5
:1001B00012F0ED52EFCF11F01230036E1130026EDB
:1001C000033202323F0E0316126A02C08AFFD89031
:1001D0000634036A090FE96E000E0320EA6EECCFC5
:1001E00012F0ED52EFCF11F01136123611361236F1
:1001F00011361236113612361136123611361236C3
:10020000C00E111611C08BFF898C059006D080BEE0
:1002100004D005B002D0899C0580072A7CD77AD704
:020220000300D9
:020000040030CA
:0E00000000F9183C003F810003C003E00340FC
:00000001FF
;PIC18F23K22
;CRC=44AF  CREATED="14-10-18 16:09"
