:1000000070EF00F0EACF12F0E9CF11F00BAE08D09C
:10001000118E11A8112A0A1E0B1E0A2AD8B40B2A07
:100020000B38F0090D6E0D26E20F0E6E320F106EBA
:100030000B500F0B0E260E261026E90F0F6E0F2603
:100040000F260A380F0B0F2610260F361036101EFB
:1000500010360A500F0B10260D36070E0C6E0A0EC6
:100060000F061026FDE30E060F26FDE30D060E26F5
:10007000FDE30C060D26FDE3EA6A0C0EE96E070EA1
:100080001114119CE906111407E111B8E92A11B8FD
:1000900003D0200E006E1CD0E926100EE95CD8B407
:1000A000118CEF50006E08E111BC06D011B814D0CD
:1000B00011B602D0200E0BD011AE06D02D0E006E60
:1000C000ED50119C119E04D011861198300E00261F
:1000D00000509EA8FED7AD6EEE5011ACDED71200D8
:1000E000F86AD09EEA6AE96A700ED36E9B8C9B9E7A
:1000F000B886400EAF6E030EB06EA60EAC6E900EBC
:10010000AB6EC150F00BC16E000E0F01386F3C6F2B
:10011000396F3A6F3B6F776A786A796A066A076A5D
:10012000086A096A870E926E800E936E946EC050B4
:10013000C00B0709C06EC08EC280C150F00BC16EEB
:10014000030E386F000E3C6F396F3A6F3B6FC15032
:10015000F00BC16E000E386F3C6F396F3A6F3B6F1A
:10016000830ED56E370ECD6ECC6AF28A9D80C00E9E
:10017000F212056A055001081AE30534006E0036D4
:10018000FC0E0016C250830B0010C26ED8900534CE
:10019000036A060FE96E000E0320EA6EC282C2B245
:1001A000FED7C3CFEFFFC4CFECFF052AE3D780A46F
:1001B00018D0100EE96E07C00BF006C00AF000015F
:1001C00021DF2C0E9EA8FED7AD6E100EE96E09C081
:1001D0000BF008C00AF016DF0A0E9EA8FED7AD6E1F
:0601E0000F01C7D7030068
:020000040030CA
:0E00000000F9183C003F810003C003E00340FC
:00000001FF
;PIC18F23K22
;CRC=1350  CREATED="14-10-18 13:30"
